{
  "abi": [
    {
      "inputs": [
        {
          "internalType": "string",
          "name": "name_",
          "type": "string"
        },
        {
          "internalType": "string",
          "name": "symbol_",
          "type": "string"
        },
        {
          "internalType": "string",
          "name": "baseURI_",
          "type": "string"
        }
      ],
      "stateMutability": "nonpayable",
      "type": "constructor"
    },
    {
      "anonymous": false,
      "inputs": [
        {
          "indexed": true,
          "internalType": "address",
          "name": "owner",
          "type": "address"
        },
        {
          "indexed": true,
          "internalType": "address",
          "name": "spender",
          "type": "address"
        },
        {
          "indexed": true,
          "internalType": "uint256",
          "name": "id",
          "type": "uint256"
        }
      ],
      "name": "Approval",
      "type": "event"
    },
    {
      "anonymous": false,
      "inputs": [
        {
          "indexed": true,
          "internalType": "address",
          "name": "owner",
          "type": "address"
        },
        {
          "indexed": true,
          "internalType": "address",
          "name": "operator",
          "type": "address"
        },
        {
          "indexed": false,
          "internalType": "bool",
          "name": "approved",
          "type": "bool"
        }
      ],
      "name": "ApprovalForAll",
      "type": "event"
    },
    {
      "anonymous": false,
      "inputs": [
        {
          "indexed": false,
          "internalType": "address",
          "name": "to",
          "type": "address"
        },
        {
          "indexed": false,
          "internalType": "uint256",
          "name": "tokenId",
          "type": "uint256"
        }
      ],
      "name": "MintSoulBoundToken",
      "type": "event"
    },
    {
      "anonymous": false,
      "inputs": [
        {
          "indexed": false,
          "internalType": "address",
          "name": "revoker",
          "type": "address"
        },
        {
          "indexed": false,
          "internalType": "uint256",
          "name": "tokenId",
          "type": "uint256"
        }
      ],
      "name": "RevokeSoulBoundToken",
      "type": "event"
    },
    {
      "anonymous": false,
      "inputs": [
        {
          "indexed": true,
          "internalType": "address",
          "name": "from",
          "type": "address"
        },
        {
          "indexed": true,
          "internalType": "address",
          "name": "to",
          "type": "address"
        },
        {
          "indexed": true,
          "internalType": "uint256",
          "name": "id",
          "type": "uint256"
        }
      ],
      "name": "Transfer",
      "type": "event"
    },
    {
      "inputs": [
        {
          "internalType": "address",
          "name": "to",
          "type": "address"
        },
        {
          "internalType": "uint256",
          "name": "tokenId",
          "type": "uint256"
        }
      ],
      "name": "approve",
      "outputs": [],
      "stateMutability": "nonpayable",
      "type": "function"
    },
    {
      "inputs": [
        {
          "internalType": "address",
          "name": "owner",
          "type": "address"
        }
      ],
      "name": "balanceOf",
      "outputs": [
        {
          "internalType": "uint256",
          "name": "",
          "type": "uint256"
        }
      ],
      "stateMutability": "view",
      "type": "function"
    },
    {
      "inputs": [],
      "name": "baseURI",
      "outputs": [
        {
          "internalType": "string",
          "name": "",
          "type": "string"
        }
      ],
      "stateMutability": "view",
      "type": "function"
    },
    {
      "inputs": [],
      "name": "creator",
      "outputs": [
        {
          "internalType": "address",
          "name": "",
          "type": "address"
        }
      ],
      "stateMutability": "view",
      "type": "function"
    },
    {
      "inputs": [
        {
          "internalType": "uint256",
          "name": "",
          "type": "uint256"
        }
      ],
      "name": "getApproved",
      "outputs": [
        {
          "internalType": "address",
          "name": "",
          "type": "address"
        }
      ],
      "stateMutability": "view",
      "type": "function"
    },
    {
      "inputs": [
        {
          "internalType": "address",
          "name": "",
          "type": "address"
        },
        {
          "internalType": "address",
          "name": "",
          "type": "address"
        }
      ],
      "name": "isApprovedForAll",
      "outputs": [
        {
          "internalType": "bool",
          "name": "",
          "type": "bool"
        }
      ],
      "stateMutability": "view",
      "type": "function"
    },
    {
      "inputs": [
        {
          "internalType": "string",
          "name": "skillName",
          "type": "string"
        },
        {
          "internalType": "string",
          "name": "skillDescription",
          "type": "string"
        },
        {
          "internalType": "string[]",
          "name": "proofOfSkills",
          "type": "string[]"
        }
      ],
      "name": "mint",
      "outputs": [],
      "stateMutability": "nonpayable",
      "type": "function"
    },
    {
      "inputs": [
        {
          "internalType": "address",
          "name": "to",
          "type": "address"
        },
        {
          "internalType": "uint256",
          "name": "tokenId",
          "type": "uint256"
        }
      ],
      "name": "mintToSoul",
      "outputs": [],
      "stateMutability": "nonpayable",
      "type": "function"
    },
    {
      "inputs": [],
      "name": "name",
      "outputs": [
        {
          "internalType": "string",
          "name": "",
          "type": "string"
        }
      ],
      "stateMutability": "view",
      "type": "function"
    },
    {
      "inputs": [
        {
          "internalType": "uint256",
          "name": "id",
          "type": "uint256"
        }
      ],
      "name": "ownerOf",
      "outputs": [
        {
          "internalType": "address",
          "name": "owner",
          "type": "address"
        }
      ],
      "stateMutability": "view",
      "type": "function"
    },
    {
      "inputs": [
        {
          "internalType": "uint256",
          "name": "tokenId",
          "type": "uint256"
        }
      ],
      "name": "revokeSoulBoundToken",
      "outputs": [],
      "stateMutability": "nonpayable",
      "type": "function"
    },
    {
      "inputs": [
        {
          "internalType": "address",
          "name": "from",
          "type": "address"
        },
        {
          "internalType": "address",
          "name": "to",
          "type": "address"
        },
        {
          "internalType": "uint256",
          "name": "tokenId",
          "type": "uint256"
        }
      ],
      "name": "safeTransferFrom",
      "outputs": [],
      "stateMutability": "nonpayable",
      "type": "function"
    },
    {
      "inputs": [
        {
          "internalType": "address",
          "name": "from",
          "type": "address"
        },
        {
          "internalType": "address",
          "name": "to",
          "type": "address"
        },
        {
          "internalType": "uint256",
          "name": "tokenId",
          "type": "uint256"
        },
        {
          "internalType": "bytes",
          "name": "_data",
          "type": "bytes"
        }
      ],
      "name": "safeTransferFrom",
      "outputs": [],
      "stateMutability": "nonpayable",
      "type": "function"
    },
    {
      "inputs": [
        {
          "internalType": "address",
          "name": "operator",
          "type": "address"
        },
        {
          "internalType": "bool",
          "name": "approved",
          "type": "bool"
        }
      ],
      "name": "setApprovalForAll",
      "outputs": [],
      "stateMutability": "nonpayable",
      "type": "function"
    },
    {
      "inputs": [
        {
          "internalType": "uint256",
          "name": "",
          "type": "uint256"
        }
      ],
      "name": "skills",
      "outputs": [
        {
          "internalType": "uint256",
          "name": "id",
          "type": "uint256"
        },
        {
          "internalType": "string",
          "name": "name",
          "type": "string"
        },
        {
          "internalType": "string",
          "name": "description",
          "type": "string"
        }
      ],
      "stateMutability": "view",
      "type": "function"
    },
    {
      "inputs": [
        {
          "internalType": "bytes4",
          "name": "interfaceId",
          "type": "bytes4"
        }
      ],
      "name": "supportsInterface",
      "outputs": [
        {
          "internalType": "bool",
          "name": "",
          "type": "bool"
        }
      ],
      "stateMutability": "view",
      "type": "function"
    },
    {
      "inputs": [],
      "name": "symbol",
      "outputs": [
        {
          "internalType": "string",
          "name": "",
          "type": "string"
        }
      ],
      "stateMutability": "view",
      "type": "function"
    },
    {
      "inputs": [
        {
          "internalType": "uint256",
          "name": "id",
          "type": "uint256"
        }
      ],
      "name": "tokenURI",
      "outputs": [
        {
          "internalType": "string",
          "name": "",
          "type": "string"
        }
      ],
      "stateMutability": "view",
      "type": "function"
    },
    {
      "inputs": [
        {
          "internalType": "address",
          "name": "from",
          "type": "address"
        },
        {
          "internalType": "address",
          "name": "to",
          "type": "address"
        },
        {
          "internalType": "uint256",
          "name": "tokenId",
          "type": "uint256"
        }
      ],
      "name": "transferFrom",
      "outputs": [],
      "stateMutability": "nonpayable",
      "type": "function"
    }
  ],
  "bytecode": {
    "object": "0x60806040523480156200001157600080fd5b50604051620014e4380380620014e48339810160408190526200003491620002a2565b828260078054620000459062000333565b80601f0160208091040260200160405190810160405280929190818152602001828054620000739062000333565b8015620000c45780601f106200009857610100808354040283529160200191620000c4565b820191906000526020600020905b815481529060010190602001808311620000a657829003601f168201915b50508551869350859250620000e2915060009060208501906200012f565b508051620000f89060019060208401906200012f565b5050600680546001600160a01b03191633179055508051620001229060079060208401906200012f565b505050505050506200036f565b8280546200013d9062000333565b90600052602060002090601f016020900481019282620001615760008555620001ac565b82601f106200017c57805160ff1916838001178555620001ac565b82800160010185558215620001ac579182015b82811115620001ac5782518255916020019190600101906200018f565b50620001ba929150620001be565b5090565b5b80821115620001ba5760008155600101620001bf565b634e487b7160e01b600052604160045260246000fd5b600082601f830112620001fd57600080fd5b81516001600160401b03808211156200021a576200021a620001d5565b604051601f8301601f19908116603f01168101908282118183101715620002455762000245620001d5565b816040528381526020925086838588010111156200026257600080fd5b600091505b8382101562000286578582018301518183018401529082019062000267565b83821115620002985760008385830101525b9695505050505050565b600080600060608486031215620002b857600080fd5b83516001600160401b0380821115620002d057600080fd5b620002de87838801620001eb565b94506020860151915080821115620002f557600080fd5b6200030387838801620001eb565b935060408601519150808211156200031a57600080fd5b506200032986828701620001eb565b9150509250925092565b600181811c908216806200034857607f821691505b6020821081036200036957634e487b7160e01b600052602260045260246000fd5b50919050565b611165806200037f6000396000f3fe608060405234801561001057600080fd5b50600436106101215760003560e01c806354d0dd4c116100ad578063a22cb46511610071578063a22cb46514610266578063b3002e8b14610274578063b88d4fde14610287578063c87b56dd14610295578063e985e9c5146102a857600080fd5b806354d0dd4c1461020f5780636352211e146102225780636c0360eb1461023557806370a082311461023d57806395d89b411461025e57600080fd5b8063095ea7b3116100f4578063095ea7b3146101b757806323b872dd146101cc578063384c9ceb146101da57806342842e0e146101cc57806350d15fbe146101ed57600080fd5b806301ffc9a71461012657806302d05d3f1461014e57806306fdde0314610179578063081812fc1461018e575b600080fd5b610139610134366004610cca565b6102d6565b60405190151581526020015b60405180910390f35b600654610161906001600160a01b031681565b6040516001600160a01b039091168152602001610145565b610181610328565b6040516101459190610d48565b61016161019c366004610d5b565b6004602052600090815260409020546001600160a01b031681565b6101ca6101c5366004610d8b565b6103b6565b005b6101ca6101c5366004610db5565b6101ca6101e8366004610d8b565b610414565b6102006101fb366004610d5b565b6104d9565b60405161014593929190610df1565b6101ca61021d366004610d5b565b61061f565b610161610230366004610d5b565b6106d3565b61018161072a565b61025061024b366004610e26565b610737565b604051908152602001610145565b61018161079a565b6101ca6101c5366004610e41565b6101ca610282366004610f3c565b6107a7565b6101ca6101c5366004611046565b6101816102a3366004610d5b565b6108d0565b6101396102b63660046110c2565b600560209081526000928352604080842090915290825290205460ff1681565b60006301ffc9a760e01b6001600160e01b03198316148061030757506380ac58cd60e01b6001600160e01b03198316145b806103225750635b5e139f60e01b6001600160e01b03198316145b92915050565b60008054610335906110f5565b80601f0160208091040260200160405190810160405280929190818152602001828054610361906110f5565b80156103ae5780601f10610383576101008083540402835291602001916103ae565b820191906000526020600020905b81548152906001019060200180831161039157829003601f168201915b505050505081565b60405162461bcd60e51b815260206004820152602860248201527f536f756c426f756e6420546f6b656e3a204f7065726174696f6e206e6f7420736044820152671d5c1c1bdc9d195960c21b60648201526084015b60405180910390fd5b6006546001600160a01b031633146104895760405162461bcd60e51b815260206004820152603260248201527f536f756c426f756e6420546f6b656e3a204f6e6c79205342542043726561746f604482015271722043616e20497373756520546f6b656e7360701b606482015260840161040b565b61049382826108da565b604080516001600160a01b0384168152602081018390527f05710630d326d510d3fd7aa36f6a453670fbf258bfede563b68011db5f6a0485910160405180910390a15050565b600881815481106104e957600080fd5b6000918252602090912060059091020180546001820180549193509061050e906110f5565b80601f016020809104026020016040519081016040528092919081815260200182805461053a906110f5565b80156105875780601f1061055c57610100808354040283529160200191610587565b820191906000526020600020905b81548152906001019060200180831161056a57829003601f168201915b50505050509080600201805461059c906110f5565b80601f01602080910402602001604051908101604052809291908181526020018280546105c8906110f5565b80156106155780601f106105ea57610100808354040283529160200191610615565b820191906000526020600020905b8154815290600101906020018083116105f857829003601f168201915b5050505050905083565b33610629826106d3565b6001600160a01b03161461068e5760405162461bcd60e51b815260206004820152602660248201527f536f756c426f756e6420546f6b656e3a204f6e6c79206f776e65722063616e206044820152657265766f6b6560d01b606482015260840161040b565b610697816109e5565b60408051338152602081018390527fd3ebb4fd0eeee2100404900ef5cc452e1fd2c4bad55d0c9f8dd510669cfb9479910160405180910390a150565b6000818152600260205260409020546001600160a01b0316806107255760405162461bcd60e51b815260206004820152600a6024820152691393d517d3525395115160b21b604482015260640161040b565b919050565b60078054610335906110f5565b60006001600160a01b03821661077e5760405162461bcd60e51b815260206004820152600c60248201526b5a45524f5f4144445245535360a01b604482015260640161040b565b506001600160a01b031660009081526003602052604090205490565b60018054610335906110f5565b6107d96040518060a0016040528060008152602001606081526020016060815260200160608152602001606081525090565b6008805480835260208084018781526040850187905260608501869052600183018455600093909352835160059092027ff3f7a9fe364faab93b216da50a3214154f22a0a2b415b23a84c8169e8b636ee38101928355925180518594610865937ff3f7a9fe364faab93b216da50a3214154f22a0a2b415b23a84c8169e8b636ee4909101920190610b44565b5060408201518051610881916002840191602090910190610b44565b506060820151805161089d916003840191602090910190610bc8565b50608082015180516108b9916004840191602090910190610c21565b50506008546108ca91503390610414565b50505050565b6060610322610ab2565b6001600160a01b0382166109245760405162461bcd60e51b81526020600482015260116024820152701253959053125117d49150d25412515395607a1b604482015260640161040b565b6000818152600260205260409020546001600160a01b03161561097a5760405162461bcd60e51b815260206004820152600e60248201526d1053149150511657d3525395115160921b604482015260640161040b565b6001600160a01b038216600081815260036020908152604080832080546001019055848352600290915280822080546001600160a01b0319168417905551839291907fddf252ad1be2c89b69c2b068fc378daa952ba7f163c4a11628f55a4df523b3ef908290a45050565b6000818152600260205260409020546001600160a01b031680610a375760405162461bcd60e51b815260206004820152600a6024820152691393d517d3525395115160b21b604482015260640161040b565b6001600160a01b038116600081815260036020908152604080832080546000190190558583526002825280832080546001600160a01b031990811690915560049092528083208054909216909155518492907fddf252ad1be2c89b69c2b068fc378daa952ba7f163c4a11628f55a4df523b3ef908390a45050565b606060078054610ac1906110f5565b80601f0160208091040260200160405190810160405280929190818152602001828054610aed906110f5565b8015610b3a5780601f10610b0f57610100808354040283529160200191610b3a565b820191906000526020600020905b815481529060010190602001808311610b1d57829003601f168201915b5050505050905090565b828054610b50906110f5565b90600052602060002090601f016020900481019282610b725760008555610bb8565b82601f10610b8b57805160ff1916838001178555610bb8565b82800160010185558215610bb8579182015b82811115610bb8578251825591602001919060010190610b9d565b50610bc4929150610c5b565b5090565b828054828255906000526020600020908101928215610c15579160200282015b82811115610c155782518051610c05918491602090910190610b44565b5091602001919060010190610be8565b50610bc4929150610c70565b828054828255906000526020600020908101928215610bb85791602002820182811115610bb8578251825591602001919060010190610b9d565b5b80821115610bc45760008155600101610c5c565b80821115610bc4576000610c848282610c8d565b50600101610c70565b508054610c99906110f5565b6000825580601f10610ca9575050565b601f016020900490600052602060002090810190610cc79190610c5b565b50565b600060208284031215610cdc57600080fd5b81356001600160e01b031981168114610cf457600080fd5b9392505050565b6000815180845260005b81811015610d2157602081850181015186830182015201610d05565b81811115610d33576000602083870101525b50601f01601f19169290920160200192915050565b602081526000610cf46020830184610cfb565b600060208284031215610d6d57600080fd5b5035919050565b80356001600160a01b038116811461072557600080fd5b60008060408385031215610d9e57600080fd5b610da783610d74565b946020939093013593505050565b600080600060608486031215610dca57600080fd5b610dd384610d74565b9250610de160208501610d74565b9150604084013590509250925092565b838152606060208201526000610e0a6060830185610cfb565b8281036040840152610e1c8185610cfb565b9695505050505050565b600060208284031215610e3857600080fd5b610cf482610d74565b60008060408385031215610e5457600080fd5b610e5d83610d74565b915060208301358015158114610e7257600080fd5b809150509250929050565b634e487b7160e01b600052604160045260246000fd5b604051601f8201601f1916810167ffffffffffffffff81118282101715610ebc57610ebc610e7d565b604052919050565b600067ffffffffffffffff831115610ede57610ede610e7d565b610ef1601f8401601f1916602001610e93565b9050828152838383011115610f0557600080fd5b828260208301376000602084830101529392505050565b600082601f830112610f2d57600080fd5b610cf483833560208501610ec4565b600080600060608486031215610f5157600080fd5b833567ffffffffffffffff80821115610f6957600080fd5b610f7587838801610f1c565b9450602091508186013581811115610f8c57600080fd5b610f9888828901610f1c565b945050604086013581811115610fad57600080fd5b8601601f81018813610fbe57600080fd5b803582811115610fd057610fd0610e7d565b8060051b610fdf858201610e93565b918252828101850191858101908b841115610ff957600080fd5b86850192505b83831015611035578235868111156110175760008081fd5b6110258d8983890101610f1c565b8352509186019190860190610fff565b809750505050505050509250925092565b6000806000806080858703121561105c57600080fd5b61106585610d74565b935061107360208601610d74565b925060408501359150606085013567ffffffffffffffff81111561109657600080fd5b8501601f810187136110a757600080fd5b6110b687823560208401610ec4565b91505092959194509250565b600080604083850312156110d557600080fd5b6110de83610d74565b91506110ec60208401610d74565b90509250929050565b600181811c9082168061110957607f821691505b60208210810361112957634e487b7160e01b600052602260045260246000fd5b5091905056fea264697066735822122059edd1c59f295b8bedb0d9ede471cb33e8f7397c3c95a4b87c1f50f0e8de6cae64736f6c634300080d0033",
    "linkReferences": {}
  },
  "methodIdentifiers": {
    "approve(address,uint256)": "095ea7b3",
    "balanceOf(address)": "70a08231",
    "baseURI()": "6c0360eb",
    "creator()": "02d05d3f",
    "getApproved(uint256)": "081812fc",
    "isApprovedForAll(address,address)": "e985e9c5",
    "mint(string,string,string[])": "b3002e8b",
    "mintToSoul(address,uint256)": "384c9ceb",
    "name()": "06fdde03",
    "ownerOf(uint256)": "6352211e",
    "revokeSoulBoundToken(uint256)": "54d0dd4c",
    "safeTransferFrom(address,address,uint256)": "42842e0e",
    "safeTransferFrom(address,address,uint256,bytes)": "b88d4fde",
    "setApprovalForAll(address,bool)": "a22cb465",
    "skills(uint256)": "50d15fbe",
    "supportsInterface(bytes4)": "01ffc9a7",
    "symbol()": "95d89b41",
    "tokenURI(uint256)": "c87b56dd",
    "transferFrom(address,address,uint256)": "23b872dd"
  },
  "id": 1
}